:1000000089C03EC2A3C0A2C0A1C0A0C09FC09EC064
:100010009DC09CC09BC09AC099C098C097C0040363
:10002000090412034D002E004C0069006E006400AC
:10003000650072001C033200780020004E0036007C
:10004000340020002D003E002000550053004200E7
:1000500032036D0061007400740068006900610083
:1000600073006C0069006E006400650072002E0071
:1000700063006F006D003A006E00360034002D0002
:1000800031001201100100000008C016DC27000139
:100090000102030109022200010100801409040089
:1000A000000103000000092101010001225E000798
:1000B00005810308000A05010904A1018501090160
:1000C000A100050109300931150026FF00750895CA
:1000D000028102C005091901290E150025017501CB
:1000E00095108102C005010904A10185020901A141
:1000F00000050109300931150026FF007508950239
:100100008102C005091901290E1500250175019507
:10011000108102C011241FBECFE5D1E0DEBFCDBFEC
:1001200010E0A0E6B0E0ECECFEE003C0C89531962C
:100130000D92A037B107D1F710E0A0E7B0E001C001
:100140001D92A63CB107E1F77DD3BFC659CF85B755
:10015000826085BF8BB780648BBF8BE480939B00EC
:100160008AE580939A0008951F93B92FA82F162F20
:1001700080919A0084FF07C080919B0098E88927AE
:1001800080939B0003C08AE580939A00912FECE94D
:10019000F0E08D91819391501916DCF3612F8CE979
:1001A00090E057D11C5F10939A001F9108951F9300
:1001B000CF93DF939091AC00935097FDAAC020910C
:1001C000A8008091A7008D3209F0A1C0983009F0F5
:1001D0009EC0CCEBD0E0C21BD10983EC80938F0092
:1001E0008AE580936000109271008881807621F00A
:1001F0008C2F9D2FE7D281C09A811092980089811F
:10020000882321F41092990082E071C0853019F49E
:100210009093AD006BC0863009F054C08B81813063
:1002200019F482E890E01AC0823041F484E990E049
:100230009093AB008093AA0092E23FC0833041F5D7
:10024000992341F48EE190E09093AB008093AA0053
:1002500094E033C0913041F482E290E09093AB009F
:100260008093AA0092E129C0923041F484E390E0A7
:100270009093AB008093AA009CE11FC09330E1F4FF
:1002800080E590E09093AB008093AA0092E315C0C4
:10029000813241F486EA90E09093AB008093AA000B
:1002A00099E00BC0823241F486EB90E09093AB0072
:1002B0008093AA009EE501C090E080E480937100E5
:1002C000892F1BC0883021F481E02FEA30E011C073
:1002D000893019F49093AF0009C08A3011F481E09D
:1002E00006C08B3019F48BE480939B0080E028E9F2
:1002F00030E03093AB002093AA00282F8F81882311
:1003000021F48E81821708F4282F20936100109227
:10031000AC008091600084FF4AC0609161006F3F33
:1003200009F445C090918F00693008F05AC01092CE
:10033000610088E8982790938F00662309F45AC0DB
:100340002091AA003091AB008091710086FF0CC013
:10035000962FF32FE22FA0E9B0E0C895802D8D9362
:1003600031969150D1F709C0962FF32FE22FA0E9D3
:10037000B0E081918D939150E1F76150932F822FDE
:10038000860F911D6F5F01969093AB008093AA003A
:100390007727162F80E990E05CD01C5F1C3010F0AE
:1003A0001CE003C08FEF809361001093600094E124
:1003B00086B3867031F49150D9F71092AD00109247
:1003C000A60010E0992309F411E0809170008117D4
:1003D000B9F0112319F4F894B6D178941093700001
:1003E0000FC068506093610088E8982790938F0051
:1003F00068E0A6CF60E080E990E02BD014E0D2CF97
:10040000DF91CF911F910895A82FB92F8FEF9FEF04
:100410001BC02D918227282F22952827722F2695E1
:1004200026952727239526952170782F892F8227B7
:100430002195207C922F2227769527959727822732
:100440007695279597278227615018F78095909584
:100450000895DADF8D939D930895A6E08827992764
:10046000AA9569F00197E1F3B199FCCFB19BFECF5A
:1004700081E09927A6B3019611F0A670D9F70895E7
:10048000CF93CFB7CF93C395B19BE9F7B19B10C082
:10049000B19B0EC0B19B0CC0B19B0AC0B19B08C000
:1004A000B19B06C0C091A900C395C093A900D5C057
:1004B0000F92DF93C091A800DD27C055DF4F012EBA
:1004C000B19B03C0DF910F90E1CF2F930F931F9348
:1004D0004F932FEF4F6F06B301FB20F95F933F93CC
:1004E00050E03BE065C016B30126502951FDC89588
:1004F00056B3012701FB25F92F7306B3B1F050273E
:10050000102711FB26F906B22230F0F000C016B316
:10051000012701FB27F90126502906B22430E8F50E
:100520004F77206816B30000F6CF50274F7D20622A
:1005300006B2102F000000C006B300265029102775
:1005400011FB26F906B2E2CF4F7B06B3206400C050
:10055000DACF01265029167006B269F14E7F21606C
:10056000012F16B328C0002650294D7F06B2226005
:10057000102F29C0012650294B7F06B22460012F7D
:100580002DC016B301265029477F2860000006B20F
:100590002EC04F7E06B3206130C0422706B3499378
:1005A00000265029102706B24FEF11FB20F9297FB2
:1005B00016B379F2167059F10126502906B20127B7
:1005C00001FB21F9237F06B371F200265029315037
:1005D000D0F006B2102711FB22F9277E16B351F294
:1005E00001265029012701FB06B223F92F7C49F28D
:1005F000000006B3102711FB24F90026502906B28B
:100600002F7939F270CF10E41ABF002719C03B5080
:100610003195C31BD04010E41ABF0881033C09F197
:100620000B34F9F02091A6001981110F1213EDCFB0
:100630004A81441F093651F10D3211F0013E29F76C
:100640000093AE003F915F914F911F910F912F91B9
:10065000DF910F90CAB7C6FD16CFCF91CFBFCF9114
:1006600018952091AE00222369F31091AC0011235C
:1006700079F534307AF13093AC002093A7001091D3
:10068000A8003BE0311B3093A80024C00091AC00CF
:100690000130F4F40AE54F7049F43091600034FD04
:1006A0001AC000936000CFE8D0E019C030919A00E2
:1006B00034FD11C000939A00CBE9D0E010C00527AB
:1006C00010E000C021C0052710E0C89508BB14C089
:1006D0003AE501C032ED032EC0E0D0E032E017B3BE
:1006E0001660C19A08B317BB56E020E84FEF20FF11
:1006F000052708BB279517951C3F28F70000455292
:10070000B0F720FF0527279508BB17951C3FB8F6C3
:1007100029913A9561F7097F1091AD00110F08BB3F
:10072000C250D04011F01093A60010E41ABF02602E
:1007300017B3197F402F497F54E05A95F1F708BB52
:1007400017BB48BB7FCFFF920F931F93CF93DF93CD
:1007500080E8F82E00E0C0E0D0E0102F1F0D11BFA0
:100760007CDE29E0843392070CF4012FF694219665
:10077000C830D10591F7015001BF0F5F102FD92F5D
:10078000C82F11C06ADE8453994097FF03C090952B
:1007900081959F4F8C179D071CF411B7D92FC82F37
:1007A00081B78F5F81BF21B73327802F99270196AB
:1007B000821793073CF711BFDF91CF911F910F91E3
:1007C000FF900895CF93DF93F92FE82FA4E7B0E0CF
:1007D000B093AB00A093AA0080818076803269F547
:1007E00081818130A1F488E0DB2FCA2F19928A958C
:1007F000E9F782818130F1F4E0917200F0917300A9
:100800000084F185E02D8A2F9B2F099513C082303B
:1008100049F48CE790E09093AB008093AA0081E0CC
:1008200090E00DC08A3021F4838180937C0005C064
:10083000893019F48FEF90E002C080E090E0DF9102
:10084000CF910895FF920F931F93A89588E190E0B0
:100850002EE00FB6F894A89581BD0FBE21BDB89AC1
:10086000C09875DCB99AA89588B391E0892788BBB0
:1008700024EF31E0ECE9F1E08E2F9F2F0197F1F7A3
:1008800021503040C9F79BD2F92FE82F9093730085
:10089000809372000280F381E02D0995E09172004F
:1008A000F09173000284F385E02D09958823D9F235
:1008B000C098A895E0917200F09173000280F381D6
:1008C000E02D0995B998789410E000E09FEFF92E9B
:1008D000A8956DDC023010F411E001C00150E091E8
:1008E0007200F09173000480F581E02D0995E0918C
:1008F0007200F09173000680F781E02D099588233E
:1009000011F011E002C0112361F180919A0084FF7F
:1009100028C000917C00E0917200F0917300008487
:10092000F185E02D84E790E00995E0917200F09167
:100930007300608184E790E017DCC09A8FEFF82E97
:1009400006C0A89534DC89E393E00197F1F7809124
:100950009A0084FD04C0FA94A1F710E00AC010E0E8
:1009600004C08DE190E10197F1F781E08F1508F463
:10097000AFCFC098ADCF8FB7F89497B3977E97BBA2
:1009800098B3977E98BB8FBF08950F931F93CF9313
:10099000DF93D92FC82F20E030E000E041E050E0A5
:1009A000F92FE82F8191882341F0952F842F022E73
:1009B00002C0880F991F0A94E2F7082B2F5F3F4F60
:1009C0002430310579F7FD2FEC2F3C9620E030E004
:1009D00040E150E08081882341F0952F842F022E42
:1009E00002C0880F991F0A94E2F7082B2F5F3F4F30
:1009F00031962430310571F79A85911191E08B85FC
:100A0000811182E0492F482BFD2FEC2F709620E0BA
:100A100030E050E0A0E8B0E08081882341F08A2FE8
:100A20009B2F022E02C0959587950A94E2F7582BCA
:100A30002F5F3F4F31962830310571F7FD2FEC2F96
:100A4000789620E030E010E0A0E8B0E080818823D4
:100A500041F08A2F9B2F022E02C0959587950A940C
:100A6000E2F7182B2F5F3F4F31962830310571F791
:100A700060937D00852F992787FD90956FE770E043
:100A8000DAD16FE570E0E9D1615860937E00812F83
:100A9000992787FD909561E87FEFCDD16FE570E0F4
:100AA000DCD1615860937F00009380004093810007
:100AB0008C81882319F04460409381008D818823C4
:100AC00029F0809181008860809381008E81882345
:100AD00029F0809181008061809381008F8188233B
:100AE00029F080918100806280938100DF91CF9115
:100AF0001F910F9108950F931F93CF93DF93CDB75D
:100B0000DEB7C154D0400FB6F894DEBF0FBECDBFE4
:100B1000FD2FEC2F3196EF93FF9300E8182F102351
:100B200071F00000BB9A34E03A95F1F70000BB98F1
:100B30003DE03A95F1F70000069579F0EFCFBB9ACA
:100B400030E13A95F1F7BB9800000000000000008A
:100B500000000000069509F0E1CFBB9834E03A951B
:100B6000F1F7BB9A00000000000000000000000048
:100B700000000000BB9830E20FEF0A95E9F016B3D1
:100B80001870D9F70000000007E00A95F1F700009F
:100B900026B300000000287021933A9539F00FEF3A
:100BA0000A9551F026B3287039F7FACF882706C086
:100BB00000000000832F02C088278095FF91EF91ED
:100BC0008F3F21F481E080938C0006C010928C004E
:100BD00062E08E2F9F2FD9DECF5BDF4F0FB6F894E8
:100BE000DEBF0FBECDBFDF91CF911F910F91089552
:100BF0000F931F93CF93DF93CDB7DEB7C154D0408F
:100C00000FB6F894DEBF0FBECDBFFD2FEC2F31968F
:100C1000EF93FF9300E8182F1023C1F00000BC9A57
:100C200000000000000000000000000000000000C4
:100C3000000000000000000000000000BC983DE043
:100C40003A95F1F70000069579F0E5CFBC9A30E1CE
:100C50003A95F1F7BC980000000000000000000089
:100C60000000069509F0D7CFBC98000000000000F6
:100C70000000000000000000000000000000000074
:100C800000000000BC9A000000000000000000000E
:100C9000000000000000BC9830E20FEF0A9581F1DF
:100CA00016B31071D9F7000000000000000000002A
:100CB0000000000000000000000000000000000034
:100CC0000000000000000000000000000000000024
:100CD000000000000000000026B3000000002071AA
:100CE00021933A9539F00FEF0A9551F026B3207110
:100CF000A1F6FACF882706C000000000832F02C0AB
:100D000088278095FF91EF918F3F21F481E08093B8
:100D10008D0006C010928D0061E08E2F9F2F35DE72
:100D2000CF5BDF4F0FB6F894DEBF0FBECDBFDF91B4
:100D3000CF911F910F9108950F931F9310918E00E3
:100D40001F5F10938E000091A90010FF03C081E087
:100D5000D2DE02C081E04CDF8091A900081729F0A3
:100D60008EEC90E00197F1F7EECF1F910F9108956F
:100D70001F9310E01FC08CE991E00197F1F721501B
:100D80003040C9F781E080938C0080938D00D4DFE0
:100D9000D3DF80918C00882351F080918D008823CF
:100DA00031F01F5F1A3031F480E090E006C081E03E
:100DB00090E003C028EC30E0DECF1F91089582E67A
:100DC00090E00895009749F0F92FE82FADE7B0E0E3
:100DD00085E00D9001928150E1F7A7E8B0E0E2E8EC
:100DE000F0E085E001900D928150E1F7A2E8B0E0DB
:100DF000EDE7F0E085E001900D928150E1F7089574
:100E000080916E0090916F00892B39F010926F00E5
:100E100010926E0021E030E00BC045E050E067E842
:100E200070E08DE790E042D0282F332727FD3095E2
:100E3000932F822F08955527002480FF02C0060EAD
:100E4000571F660F771F6115710521F096958795DD
:100E5000009799F7952F802D089597FB092E072667
:100E60000AD077FD04D00CD006D000201AF470957B
:100E700061957F4F0895F6F7909581959F4F08955E
:100E8000AA1BBB1B51E107C0AA1FBB1FA617B707B0
:100E900010F0A61BB70B881F991F5A95A9F78095CC
:100EA0009095682F792F8A2F9B2F0895E62FF72F83
:100EB000A82FB92F04C08D910190801921F44150C1
:0C0EC0005040C8F7881B990B0895FFCF25
:100ECC005AFF0500BB049C060007E206B8060100A9
:00000001FF
