:1000000089C02AC2A2C0A1C0A0C09FC09EC09DC07E
:100010009CC09BC09AC099C098C097C096C0090266
:100020002200010100801409040000010300000007
:10003000092101010001225E000705810308000A71
:100040001201100100000008C016DC2700010102A7
:10005000030132036D0061007400740068006900E0
:10006000610073006C0069006E006400650072003E
:100070002E0063006F006D003A006E003600340001
:100080002D0031001C033200780020004E003600A5
:10009000340020002D003E00200055005300420097
:1000A00012034D002E004C0069006E0064006500D4
:1000B00072000403090405010904A1018501090175
:1000C000A100050109300931150026FF00750895CA
:1000D000028102C005091901290E150025017501CB
:1000E00095108102C005010904A10185020901A141
:1000F00000050109300931150026FF007508950239
:100100008102C005091901290E1500250175019507
:10011000108102C011241FBECFE5D2E0DEBFCDBFEB
:1001200010E0A0E6B0E0E4E8FEE002C005900D9229
:10013000A037B107D9F710E0A0E7B0E001C01D92E9
:10014000A63CB107E1F7C3D59BC65ACFCF93C62FC4
:1001500020919A0024FF07C020919B0038E82327B4
:1001600020939B0003C02AE520939A00DC01ECE970
:10017000F0E09C2F9E0F8D918193892F8E1B181676
:10018000D4F36C2F8CE990E050D1CC5FC0939A00EF
:10019000CF910895CF93DF938091AC00835087FD7A
:1001A000ADC09091A8002091A7002D3209F0A4C005
:1001B000883009F0A1C0CCE0D0E0C91BD109C055FE
:1001C000DF4F83EC80938F008AE58093610010926B
:1001D00071008881807619F0CE01E0D284C09A81C6
:1001E000109298008981811106C01092990028E927
:1001F00030E082E074C0853019F49093AD006CC09B
:10020000863009F053C08B81813019F480E490E08E
:100210001AC0823041F48EE190E09093AB0080935D
:10022000AA0082E23FC0833041F5911108C082EB01
:1002300090E09093AB008093AA0084E033C09130AB
:1002400041F480EA90E09093AB008093AA0082E1B1
:1002500029C0923041F484E890E09093AB00809301
:10026000AA008CE11FC09330E1F482E590E0909306
:10027000AB008093AA0082E315C0813241F480E391
:1002800090E09093AB008093AA0089E00BC082328B
:1002900041F486EB90E09093AB008093AA008EE54A
:1002A00001C080E090E4909371001DC0883069F037
:1002B000893019F49093AF000FC08A3049F08B3029
:1002C00059F48BE480939B0007C02FEA30E002C012
:1002D00028E930E081E003C028E930E080E0309395
:1002E000AB002093AA009F81911104C09E819817B2
:1002F00008F4892F809360001092AC008091610017
:1003000084FF46C0809160008F3F09F441C0C82F30
:10031000893008F0C8E08C1B8093600080918F00CA
:1003200098E8892780938F00CC2331F12091AA008F
:100330003091AB008091710086FF0BC0A0E9B0E066
:10034000F9018C2F8A0F94919D9331968A13FBCFDC
:1003500009C0D901E0E9F0E08C2F8E0F9D919193B7
:100360008E13FCCF8FEF8C0F90E00196820F931FBE
:100370009093AB008093AA006C2F80E990E055D059
:10038000CC5FCC3019F08FEF80936000C093610098
:1003900084E196B3967031F48150D9F71092AD0094
:1003A0001092A600C1E08111C0E0809170008C170E
:1003B00039F0C11103C0F894B2D17894C0937000A1
:1003C000DF91CF91089585B7826085BF8BB7806438
:1003D0008BBF8BE480939B008AE580939A000895FD
:1003E000A82FB92F8FEF9FEF1BC02D918227282FA9
:1003F00022952827722F269526952727239526951F
:100400002170782F892F82272195207C922F2227F7
:100410007695279597278227769527959727822780
:10042000615018F7809590950895DADF8D939D932C
:100430000895A6E088279927AA9569F00197E1F326
:10044000B199FCCFB19BFECF81E09927A6B301966D
:1004500011F0A670D9F70895CF93CFB7CF93C39576
:10046000B19BE9F7B19B10C0B19B0EC0B19B0CC012
:10047000B19B0AC0B19B08C0B19B06C0C091A90046
:10048000C395C093A900D5C00F92DF93C091A80077
:10049000DD27C055DF4F012EB19B03C0DF910F90C8
:1004A000E1CF2F930F931F934F932FEF4F6F06B30F
:1004B00001FB20F95F933F9350E03BE065C016B32A
:1004C0000126502951FDC89556B3012701FB25F996
:1004D0002F7306B3B1F05027102711FB26F906B28F
:1004E0002230F0F000C016B3012701FB27F90126E6
:1004F000502906B22430E8F54F77206816B3000083
:10050000F6CF50274F7D206206B2102F000000C0AA
:1005100006B300265029102711FB26F906B2E2CFB8
:100520004F7B06B3206400C0DACF01265029167035
:1005300006B269F14E7F2160012F16B328C0002654
:1005400050294D7F06B22260102F29C00126502964
:100550004B7F06B22460012F2DC016B3012650290F
:10056000477F2860000006B22EC04F7E06B3206190
:1005700030C0422706B3499300265029102706B2FF
:100580004FEF11FB20F9297F16B379F2167059F15C
:100590000126502906B2012701FB21F9237F06B36A
:1005A00071F2002650293150D0F006B2102711FB0D
:1005B00022F9277E16B351F201265029012701FBAB
:1005C00006B223F92F7C49F2000006B3102711FB75
:1005D00024F90026502906B22F7939F270CF10E4A1
:1005E0001ABF002719C03B503195C31BD04010E4FF
:1005F0001ABF0881033C09F10B34F9F02091A600E1
:100600001981110F1213EDCF4A81441F093651F1A0
:100610000D3211F0013E29F70093AE003F915F913A
:100620004F911F910F912F91DF910F90CAB7C6FD87
:1006300016CFCF91CFBFCF9118952091AE00222336
:1006400069F31091AC00112379F534307AF13093CD
:10065000AC002093A7001091A8003BE0311B309321
:10066000A80024C00091AC000130F4F40AE54F70FA
:1006700049F43091610034FD1AC000936100CFE865
:10068000D0E019C030919A0034FD11C000939A0057
:10069000CBE9D0E010C0052710E000C021C005273D
:1006A00010E0C89508BB14C03AE501C032ED032E36
:1006B000C0E0D0E032E017B31660C19A08B317BBB0
:1006C00056E020E84FEF20FF052708BB2795179538
:1006D0001C3F28F700004552B0F720FF052727955B
:1006E00008BB17951C3FB8F629913A9561F7097F29
:1006F0001091AD00110F08BBC250D04011F0109303
:10070000A60010E41ABF026017B3197F402F497F7B
:1007100054E05A95F1F708BB17BB48BB7FCFDF9277
:10072000EF92FF920F931F93CF93DF93C8E0D0E037
:10073000F12C80E8E82EDF2CDE0CD1BE7ADE8C01B5
:10074000043389E018070CF4FD2CE69421972097D8
:1007500091F78FEF8F0D81BFCF2DD0E0219681B71C
:1007600090E0C817D9078CF064DE8453994097FF56
:1007700003C09195819591098017910714F4F1B602
:100780008C0181B78F5F81BFEACFF1BEDF91CF913E
:100790001F910F91FF90EF90DF900895CF93DF931B
:1007A000FC01A3E7B0E0B093AB00A093AA00808166
:1007B0008076803259F59181913091F488E0ED0195
:1007C00019928A95E9F78281813011F5E0917B00D9
:1007D000F0917C000084F185E02DCD01099518C0D1
:1007E000923041F482E790E09093AB008093AA00AE
:1007F00081E00FC09A3021F483818093720006C09B
:1008000081E0993009F080E0819503C080E001C06B
:100810008FEFDF91CF9108959FB7F89487B3877ECC
:1008200087BB88B3877E88BB9FBF0895009741F040
:1008300025E0EAE8F0E0DC0101900D922A95E1F76D
:1008400085E0E5E8F0E0A0E8B0E001900D928A953F
:10085000E1F785E0EAE8F0E0A5E8B0E001900D926C
:100860008A95E1F708958091620090916300892B49
:1008700031F0109263001092620081E0089545E02B
:1008800050E060E870E08AE890E0EDD20895FF92D1
:100890000F931F93CF93DF93FC0110E080E090E073
:1008A00031E0DC01AE0FBF1F2C91222339F0232F42
:1008B000082E01C0220F0A94EAF701C020E0122B93
:1008C00001968430910569F780E090E09F01245FF4
:1008D0003F4F50E1D901A80FB91F4C91442339F083
:1008E000452F082E01C0440F0A94EAF701C040E0EA
:1008F000142B01968430910569F7928581E091115E
:1009000001C080E09385911102C000E001C002E0C7
:10091000082B80E020E030E0AF01405F5F4FA0E8AF
:10092000B0E0EA01C20FD31F9881992341F0ED0195
:10093000022E02C0D595C7950A94E2F701C0C0E027
:100940008C2B2F5F3F4F2830310559F7F12C20E0D9
:1009500030E0AF01485E5F4FA0E8B0E0EA01C20FAF
:10096000D31F9881992341F0ED01022E02C0D59545
:10097000C7950A94E2F701C0C0E0FC2A2F5F3F4F01
:100980002830310559F760938A00992787FD9095A3
:100990006FE770E030D22FE530E0B9013DD2615809
:1009A00060938B008F2D992787FD909561E87FEFED
:1009B00022D2B90131D2615860938C0010938D001E
:1009C00000938E008481882319F0046000938E00C8
:1009D0008581882329F080918E00886080938E0025
:1009E0008681882329F080918E00806180938E001B
:1009F0008781882329F080918E00806280938E0009
:100A0000DF91CF911F910F91FF9008950F931F9346
:100A1000CF93DF93CDB7DEB7C154D1090FB6F894A9
:100A2000DEBF0FBECDBFFE013196EF93FF9300E80E
:100A3000182F102371F00000BB9A34E03A95F1F7BB
:100A40000000BB983DE03A95F1F70000069579F07B
:100A5000EFCFBB9A30E13A95F1F7BB980000000068
:100A60000000000000000000069509F0E1CFBB98EF
:100A700034E03A95F1F7BB9A000000000000000056
:100A80000000000000000000BB9830E20FEF0A9564
:100A9000E9F016B31870D9F70000000007E00A95D6
:100AA000F1F7000026B300000000287021933A956A
:100AB00039F00FEF0A9551F026B3287039F7FACFC5
:100AC000882706C000000000832F02C08827809579
:100AD000FF91EF918F3F21F481E080937F0006C06A
:100AE00010927F0062E0CE010196D1DECF5BDF4F36
:100AF0000FB6F894DEBF0FBECDBFDF91CF911F912F
:100B00000F9108950F931F93CF93DF93CDB7DEB767
:100B1000C154D1090FB6F894DEBF0FBECDBFFE01A0
:100B20003196EF93FF9300E8182F1023C1F00000D7
:100B3000BC9A00000000000000000000000000005F
:100B40000000000000000000000000000000BC9851
:100B50003DE03A95F1F70000069579F0E5CFBC9AB3
:100B600030E13A95F1F7BC98000000000000000069
:100B700000000000069509F0D7CFBC9800000000E7
:100B80000000000000000000000000000000000065
:100B9000000000000000BC9A0000000000000000FF
:100BA0000000000000000000BC9830E20FEF0A9542
:100BB00081F116B31071D9F70000000000000000A9
:100BC0000000000000000000000000000000000025
:100BD0000000000000000000000000000000000015
:100BE0000000000000000000000026B3000000002C
:100BF000207121933A9539F00FEF0A9551F026B301
:100C00002071A1F6FACF882706C000000000832FCC
:100C100002C088278095FF91EF918F3F21F481E0FA
:100C200080937E0006C010927E0061E0CE010196A6
:100C30002EDECF5BDF4F0FB6F894DEBF0FBECDBF09
:100C4000DF91CF911F910F910895CF9380917D00F7
:100C50008F5F80937D00C091A90080917D0080FF0F
:100C600003C081E0D3DE02C081E04CDF8091A900A7
:100C7000C81729F08EEC90E00197F1F7ECCFCF91F7
:100C80000895CF93DF93CAE0D1E02FEC81E091E0AB
:100C9000215080409040E1F700C00000D0937F00D9
:100CA000D0937E00D2DFD1DF80917F00882341F096
:100CB00080917E00882321F0C15039F780E001C087
:100CC00081E0DF91CF91089584E690E00895A895A2
:100CD0002EE088E190E00FB6F894A89581BD0FBE94
:100CE00021BDB89AC0986FDBB99AC1E0A89588B3C6
:100CF0008C2788BB27E884E892E021508040904010
:100D0000E1F700C00000E0DF90937C0080937B005F
:100D1000DC011296ED91FC9113970995E0917B000F
:100D2000F0917C000284F385E02D09958823F1F28F
:100D3000C098A895E0917B00F0917C000280F3813F
:100D4000E02D0995B9987894DFEF10E0C0E0A89500
:100D500021DA123010F0115001C0C1E0E0917B00A7
:100D6000F0917C000480F581E02D0995E0917B00F5
:100D7000F0917C000680F781E02D0995811102C079
:100D8000CC2361F180919A0084FF27C010917200FA
:100D9000E0917B00F0917C000084F185E02D83E7F9
:100DA00090E00995E0917B00F0917C00608183E701
:100DB00090E0CCD9C09ADFEF80919A0084FD15C0F5
:100DC000D15049F0A895E6D988E393E00197F1F76F
:100DD00000C00000F1CFC0E00CC0C1E0ACE1B0E168
:100DE0001197F1F700C0000001C0C0E0D23008F058
:100DF000AECFC098ACCF0024552704C0080E591FB1
:100E0000880F991F009729F076956795B8F37105BB
:100E1000B9F7802D952F089597FB072E16F40094AF
:100E200006D077FD08D00BD007FC05D03EF4909596
:100E300081959F4F0895709561957F4F0895AA1BE6
:100E4000BB1B51E107C0AA1FBB1FA617B70710F0B5
:100E5000A61BB70B881F991F5A95A9F780959095E7
:100E6000BC01CD010895FB01DC0104C08D9101900E
:100E7000801921F441505040C8F7881B990B089500
:040E8000F894FFCF14
:100E8400FF5A010005000C0425063304160441062C
:00000001FF
